{
  "_format": "hh-sol-artifact-1",
  "contractName": "SilesiaID",
  "sourceName": "contracts/SilesiaID.sol",
  "abi": [
    {
      "inputs": [],
      "stateMutability": "nonpayable",
      "type": "constructor"
    },
    {
      "anonymous": false,
      "inputs": [
        {
          "indexed": true,
          "internalType": "address",
          "name": "owner",
          "type": "address"
        },
        {
          "indexed": true,
          "internalType": "address",
          "name": "approved",
          "type": "address"
        },
        {
          "indexed": true,
          "internalType": "uint256",
          "name": "tokenId",
          "type": "uint256"
        }
      ],
      "name": "Approval",
      "type": "event"
    },
    {
      "anonymous": false,
      "inputs": [
        {
          "indexed": true,
          "internalType": "address",
          "name": "owner",
          "type": "address"
        },
        {
          "indexed": true,
          "internalType": "address",
          "name": "operator",
          "type": "address"
        },
        {
          "indexed": false,
          "internalType": "bool",
          "name": "approved",
          "type": "bool"
        }
      ],
      "name": "ApprovalForAll",
      "type": "event"
    },
    {
      "anonymous": false,
      "inputs": [
        {
          "indexed": true,
          "internalType": "uint256",
          "name": "tokenId",
          "type": "uint256"
        },
        {
          "indexed": true,
          "internalType": "string",
          "name": "certId",
          "type": "string"
        },
        {
          "indexed": true,
          "internalType": "address",
          "name": "wallet",
          "type": "address"
        },
        {
          "indexed": false,
          "internalType": "uint8",
          "name": "trustLevel",
          "type": "uint8"
        },
        {
          "indexed": false,
          "internalType": "uint256",
          "name": "timestamp",
          "type": "uint256"
        }
      ],
      "name": "IdentityIssued",
      "type": "event"
    },
    {
      "anonymous": false,
      "inputs": [
        {
          "indexed": true,
          "internalType": "uint256",
          "name": "tokenId",
          "type": "uint256"
        },
        {
          "indexed": true,
          "internalType": "string",
          "name": "certId",
          "type": "string"
        },
        {
          "indexed": false,
          "internalType": "uint256",
          "name": "timestamp",
          "type": "uint256"
        }
      ],
      "name": "IdentityRevoked",
      "type": "event"
    },
    {
      "anonymous": false,
      "inputs": [
        {
          "indexed": true,
          "internalType": "address",
          "name": "previousOwner",
          "type": "address"
        },
        {
          "indexed": true,
          "internalType": "address",
          "name": "newOwner",
          "type": "address"
        }
      ],
      "name": "OwnershipTransferred",
      "type": "event"
    },
    {
      "anonymous": false,
      "inputs": [
        {
          "indexed": true,
          "internalType": "address",
          "name": "from",
          "type": "address"
        },
        {
          "indexed": true,
          "internalType": "address",
          "name": "to",
          "type": "address"
        },
        {
          "indexed": true,
          "internalType": "uint256",
          "name": "tokenId",
          "type": "uint256"
        }
      ],
      "name": "Transfer",
      "type": "event"
    },
    {
      "inputs": [],
      "name": "TRUST_BANK",
      "outputs": [
        {
          "internalType": "uint8",
          "name": "",
          "type": "uint8"
        }
      ],
      "stateMutability": "view",
      "type": "function"
    },
    {
      "inputs": [],
      "name": "TRUST_CEIDG",
      "outputs": [
        {
          "internalType": "uint8",
          "name": "",
          "type": "uint8"
        }
      ],
      "stateMutability": "view",
      "type": "function"
    },
    {
      "inputs": [],
      "name": "TRUST_KRS",
      "outputs": [
        {
          "internalType": "uint8",
          "name": "",
          "type": "uint8"
        }
      ],
      "stateMutability": "view",
      "type": "function"
    },
    {
      "inputs": [
        {
          "internalType": "address",
          "name": "to",
          "type": "address"
        },
        {
          "internalType": "uint256",
          "name": "tokenId",
          "type": "uint256"
        }
      ],
      "name": "approve",
      "outputs": [],
      "stateMutability": "nonpayable",
      "type": "function"
    },
    {
      "inputs": [
        {
          "internalType": "address",
          "name": "owner",
          "type": "address"
        }
      ],
      "name": "balanceOf",
      "outputs": [
        {
          "internalType": "uint256",
          "name": "",
          "type": "uint256"
        }
      ],
      "stateMutability": "view",
      "type": "function"
    },
    {
      "inputs": [
        {
          "internalType": "string",
          "name": "",
          "type": "string"
        }
      ],
      "name": "certIdToTokenId",
      "outputs": [
        {
          "internalType": "uint256",
          "name": "",
          "type": "uint256"
        }
      ],
      "stateMutability": "view",
      "type": "function"
    },
    {
      "inputs": [
        {
          "internalType": "uint256",
          "name": "tokenId",
          "type": "uint256"
        }
      ],
      "name": "getApproved",
      "outputs": [
        {
          "internalType": "address",
          "name": "",
          "type": "address"
        }
      ],
      "stateMutability": "view",
      "type": "function"
    },
    {
      "inputs": [
        {
          "internalType": "string",
          "name": "certId",
          "type": "string"
        }
      ],
      "name": "getIdentityByCertId",
      "outputs": [
        {
          "components": [
            {
              "internalType": "bytes32",
              "name": "nipHash",
              "type": "bytes32"
            },
            {
              "internalType": "bytes32",
              "name": "krsHash",
              "type": "bytes32"
            },
            {
              "internalType": "uint8",
              "name": "trustLevel",
              "type": "uint8"
            },
            {
              "internalType": "bool",
              "name": "isActive",
              "type": "bool"
            },
            {
              "internalType": "uint256",
              "name": "issuedAt",
              "type": "uint256"
            },
            {
              "internalType": "uint256",
              "name": "updatedAt",
              "type": "uint256"
            },
            {
              "internalType": "string",
              "name": "certId",
              "type": "string"
            }
          ],
          "internalType": "struct SilesiaID.BusinessIdentity",
          "name": "",
          "type": "tuple"
        }
      ],
      "stateMutability": "view",
      "type": "function"
    },
    {
      "inputs": [
        {
          "internalType": "uint256",
          "name": "",
          "type": "uint256"
        }
      ],
      "name": "identities",
      "outputs": [
        {
          "internalType": "bytes32",
          "name": "nipHash",
          "type": "bytes32"
        },
        {
          "internalType": "bytes32",
          "name": "krsHash",
          "type": "bytes32"
        },
        {
          "internalType": "uint8",
          "name": "trustLevel",
          "type": "uint8"
        },
        {
          "internalType": "bool",
          "name": "isActive",
          "type": "bool"
        },
        {
          "internalType": "uint256",
          "name": "issuedAt",
          "type": "uint256"
        },
        {
          "internalType": "uint256",
          "name": "updatedAt",
          "type": "uint256"
        },
        {
          "internalType": "string",
          "name": "certId",
          "type": "string"
        }
      ],
      "stateMutability": "view",
      "type": "function"
    },
    {
      "inputs": [
        {
          "internalType": "address",
          "name": "owner",
          "type": "address"
        },
        {
          "internalType": "address",
          "name": "operator",
          "type": "address"
        }
      ],
      "name": "isApprovedForAll",
      "outputs": [
        {
          "internalType": "bool",
          "name": "",
          "type": "bool"
        }
      ],
      "stateMutability": "view",
      "type": "function"
    },
    {
      "inputs": [
        {
          "internalType": "address",
          "name": "wallet",
          "type": "address"
        },
        {
          "internalType": "bytes32",
          "name": "nipHash",
          "type": "bytes32"
        },
        {
          "internalType": "bytes32",
          "name": "krsHash",
          "type": "bytes32"
        },
        {
          "internalType": "uint8",
          "name": "trustLevel",
          "type": "uint8"
        },
        {
          "internalType": "string",
          "name": "certId",
          "type": "string"
        }
      ],
      "name": "mint",
      "outputs": [
        {
          "internalType": "uint256",
          "name": "",
          "type": "uint256"
        }
      ],
      "stateMutability": "nonpayable",
      "type": "function"
    },
    {
      "inputs": [],
      "name": "name",
      "outputs": [
        {
          "internalType": "string",
          "name": "",
          "type": "string"
        }
      ],
      "stateMutability": "view",
      "type": "function"
    },
    {
      "inputs": [],
      "name": "owner",
      "outputs": [
        {
          "internalType": "address",
          "name": "",
          "type": "address"
        }
      ],
      "stateMutability": "view",
      "type": "function"
    },
    {
      "inputs": [
        {
          "internalType": "uint256",
          "name": "tokenId",
          "type": "uint256"
        }
      ],
      "name": "ownerOf",
      "outputs": [
        {
          "internalType": "address",
          "name": "",
          "type": "address"
        }
      ],
      "stateMutability": "view",
      "type": "function"
    },
    {
      "inputs": [],
      "name": "renounceOwnership",
      "outputs": [],
      "stateMutability": "nonpayable",
      "type": "function"
    },
    {
      "inputs": [
        {
          "internalType": "string",
          "name": "certId",
          "type": "string"
        }
      ],
      "name": "revoke",
      "outputs": [],
      "stateMutability": "nonpayable",
      "type": "function"
    },
    {
      "inputs": [
        {
          "internalType": "address",
          "name": "",
          "type": "address"
        },
        {
          "internalType": "address",
          "name": "",
          "type": "address"
        },
        {
          "internalType": "uint256",
          "name": "",
          "type": "uint256"
        }
      ],
      "name": "safeTransferFrom",
      "outputs": [],
      "stateMutability": "pure",
      "type": "function"
    },
    {
      "inputs": [
        {
          "internalType": "address",
          "name": "",
          "type": "address"
        },
        {
          "internalType": "address",
          "name": "",
          "type": "address"
        },
        {
          "internalType": "uint256",
          "name": "",
          "type": "uint256"
        },
        {
          "internalType": "bytes",
          "name": "",
          "type": "bytes"
        }
      ],
      "name": "safeTransferFrom",
      "outputs": [],
      "stateMutability": "pure",
      "type": "function"
    },
    {
      "inputs": [
        {
          "internalType": "address",
          "name": "operator",
          "type": "address"
        },
        {
          "internalType": "bool",
          "name": "approved",
          "type": "bool"
        }
      ],
      "name": "setApprovalForAll",
      "outputs": [],
      "stateMutability": "nonpayable",
      "type": "function"
    },
    {
      "inputs": [
        {
          "internalType": "bytes4",
          "name": "interfaceId",
          "type": "bytes4"
        }
      ],
      "name": "supportsInterface",
      "outputs": [
        {
          "internalType": "bool",
          "name": "",
          "type": "bool"
        }
      ],
      "stateMutability": "view",
      "type": "function"
    },
    {
      "inputs": [],
      "name": "symbol",
      "outputs": [
        {
          "internalType": "string",
          "name": "",
          "type": "string"
        }
      ],
      "stateMutability": "view",
      "type": "function"
    },
    {
      "inputs": [
        {
          "internalType": "uint256",
          "name": "tokenId",
          "type": "uint256"
        }
      ],
      "name": "tokenURI",
      "outputs": [
        {
          "internalType": "string",
          "name": "",
          "type": "string"
        }
      ],
      "stateMutability": "view",
      "type": "function"
    },
    {
      "inputs": [
        {
          "internalType": "address",
          "name": "",
          "type": "address"
        },
        {
          "internalType": "address",
          "name": "",
          "type": "address"
        },
        {
          "internalType": "uint256",
          "name": "",
          "type": "uint256"
        }
      ],
      "name": "transferFrom",
      "outputs": [],
      "stateMutability": "pure",
      "type": "function"
    },
    {
      "inputs": [
        {
          "internalType": "address",
          "name": "newOwner",
          "type": "address"
        }
      ],
      "name": "transferOwnership",
      "outputs": [],
      "stateMutability": "nonpayable",
      "type": "function"
    },
    {
      "inputs": [
        {
          "internalType": "address",
          "name": "",
          "type": "address"
        }
      ],
      "name": "walletToTokenId",
      "outputs": [
        {
          "internalType": "uint256",
          "name": "",
          "type": "uint256"
        }
      ],
      "stateMutability": "view",
      "type": "function"
    }
  ],
  "bytecode": "0x60806040523480156200001157600080fd5b506040518060400160405280600981526020017f53696c65736961494400000000000000000000000000000000000000000000008152506040518060400160405280600381526020017f534944000000000000000000000000000000000000000000000000000000000081525081600090816200008f919062000412565b508060019081620000a1919062000412565b505050620000c4620000b8620000ca60201b60201c565b620000d260201b60201c565b620004f9565b600033905090565b6000600660009054906101000a900473ffffffffffffffffffffffffffffffffffffffff16905081600660006101000a81548173ffffffffffffffffffffffffffffffffffffffff021916908373ffffffffffffffffffffffffffffffffffffffff1602179055508173ffffffffffffffffffffffffffffffffffffffff168173ffffffffffffffffffffffffffffffffffffffff167f8be0079c531659141344cd1fd0a4f28419497f9722a3daafe3b4186f6b6457e060405160405180910390a35050565b600081519050919050565b7f4e487b7100000000000000000000000000000000000000000000000000000000600052604160045260246000fd5b7f4e487b7100000000000000000000000000000000000000000000000000000000600052602260045260246000fd5b600060028204905060018216806200021a57607f821691505b60208210810362000230576200022f620001d2565b5b50919050565b60008190508160005260206000209050919050565b60006020601f8301049050919050565b600082821b905092915050565b6000600883026200029a7fffffffffffffffffffffffffffffffffffffffffffffffffffffffffffffffff826200025b565b620002a686836200025b565b95508019841693508086168417925050509392505050565b6000819050919050565b6000819050919050565b6000620002f3620002ed620002e784620002be565b620002c8565b620002be565b9050919050565b6000819050919050565b6200030f83620002d2565b620003276200031e82620002fa565b84845462000268565b825550505050565b600090565b6200033e6200032f565b6200034b81848462000304565b505050565b5b8181101562000373576200036760008262000334565b60018101905062000351565b5050565b601f821115620003c2576200038c8162000236565b62000397846200024b565b81016020851015620003a7578190505b620003bf620003b6856200024b565b83018262000350565b50505b505050565b600082821c905092915050565b6000620003e760001984600802620003c7565b1980831691505092915050565b6000620004028383620003d4565b9150826002028217905092915050565b6200041d8262000198565b67ffffffffffffffff811115620004395762000438620001a3565b5b62000445825462000201565b6200045282828562000377565b600060209050601f8311600181146200048a576000841562000475578287015190505b620004818582620003f4565b865550620004f1565b601f1984166200049a8662000236565b60005b82811015620004c4578489015182556001820191506020850194506020810190506200049d565b86831015620004e45784890151620004e0601f891682620003d4565b8355505b6001600288020188555050505b505050505050565b61359380620005096000396000f3fe608060405234801561001057600080fd5b50600436106101735760003560e01c80638da5cb5b116100de578063b88d4fde11610097578063e26410f811610071578063e26410f814610470578063e985e9c51461048e578063eaaf77e6146104be578063f2fde38b146104f457610173565b8063b88d4fde146103f4578063c87b56dd14610410578063d468cfc41461044057610173565b80638da5cb5b1461030c57806395d89b411461032a5780639c2806c7146103485780639ed278d614610378578063a21a5af9146103a8578063a22cb465146103d857610173565b806342842e0e1161013057806342842e0e1461024c5780635d559802146102685780636352211e1461028657806365b2a863146102b657806370a08231146102d2578063715018a61461030257610173565b806301ffc9a71461017857806306fdde03146101a8578063081812fc146101c6578063095ea7b3146101f657806314f44d7f1461021257806323b872dd14610230575b600080fd5b610192600480360381019061018d9190611f3c565b610510565b60405161019f9190611f84565b60405180910390f35b6101b06105f2565b6040516101bd919061202f565b60405180910390f35b6101e060048036038101906101db9190612087565b610684565b6040516101ed91906120f5565b60405180910390f35b610210600480360381019061020b919061213c565b6106ca565b005b61021a6107e1565b6040516102279190612198565b60405180910390f35b61024a600480360381019061024591906121b3565b6107e6565b005b610266600480360381019061026191906121b3565b610821565b005b61027061085c565b60405161027d9190612198565b60405180910390f35b6102a0600480360381019061029b9190612087565b610861565b6040516102ad91906120f5565b60405180910390f35b6102d060048036038101906102cb919061226b565b6108e7565b005b6102ec60048036038101906102e791906122b8565b6109f6565b6040516102f991906122f4565b60405180910390f35b61030a610aad565b005b610314610ac1565b60405161032191906120f5565b60405180910390f35b610332610aeb565b60405161033f919061202f565b60405180910390f35b610362600480360381019061035d91906122b8565b610b7d565b60405161036f91906122f4565b60405180910390f35b610392600480360381019061038d919061243f565b610b95565b60405161039f91906122f4565b60405180910390f35b6103c260048036038101906103bd91906124ea565b610bc3565b6040516103cf91906122f4565b60405180910390f35b6103f260048036038101906103ed91906125b0565b610f1e565b005b61040e60048036038101906104099190612691565b610f34565b005b61042a60048036038101906104259190612087565b610f6f565b604051610437919061202f565b60405180910390f35b61045a6004803603810190610455919061226b565b610fd7565b6040516104679190612836565b60405180910390f35b610478611160565b6040516104859190612198565b60405180910390f35b6104a860048036038101906104a39190612858565b611165565b6040516104b59190611f84565b60405180910390f35b6104d860048036038101906104d39190612087565b6111f9565b6040516104eb97969594939291906128a7565b60405180910390f35b61050e600480360381019061050991906122b8565b6112dd565b005b60007f80ac58cd000000000000000000000000000000000000000000000000000000007bffffffffffffffffffffffffffffffffffffffffffffffffffffffff1916827bffffffffffffffffffffffffffffffffffffffffffffffffffffffff191614806105db57507f5b5e139f000000000000000000000000000000000000000000000000000000007bffffffffffffffffffffffffffffffffffffffffffffffffffffffff1916827bffffffffffffffffffffffffffffffffffffffffffffffffffffffff1916145b806105eb57506105ea82611360565b5b9050919050565b6060600080546106019061294c565b80601f016020809104026020016040519081016040528092919081815260200182805461062d9061294c565b801561067a5780601f1061064f5761010080835404028352916020019161067a565b820191906000526020600020905b81548152906001019060200180831161065d57829003601f168201915b5050505050905090565b600061068f826113ca565b6004600083815260200190815260200160002060009054906101000a900473ffffffffffffffffffffffffffffffffffffffff169050919050565b60006106d582610861565b90508073ffffffffffffffffffffffffffffffffffffffff168373ffffffffffffffffffffffffffffffffffffffff1603610745576040517f08c379a000000000000000000000000000000000000000000000000000000000815260040161073c906129ef565b60405180910390fd5b8073ffffffffffffffffffffffffffffffffffffffff16610764611415565b73ffffffffffffffffffffffffffffffffffffffff16148061079357506107928161078d611415565b611165565b5b6107d2576040517f08c379a00000000000000000000000000000000000000000000000000000000081526004016107c990612a81565b60405180910390fd5b6107dc838361141d565b505050565b600281565b6040517f08c379a000000000000000000000000000000000000000000000000000000000815260040161081890612aed565b60405180910390fd5b6040517f08c379a000000000000000000000000000000000000000000000000000000000815260040161085390612aed565b60405180910390fd5b600381565b60008061086d836114d6565b9050600073ffffffffffffffffffffffffffffffffffffffff168173ffffffffffffffffffffffffffffffffffffffff16036108de576040517f08c379a00000000000000000000000000000000000000000000000000000000081526004016108d590612b59565b60405180910390fd5b80915050919050565b6108ef611513565b600060088383604051610903929190612ba9565b908152602001604051809103902054905060008103610957576040517f08c379a000000000000000000000000000000000000000000000000000000000815260040161094e90612c0e565b60405180910390fd5b60006009600083815260200190815260200160002060020160016101000a81548160ff02191690831515021790555042600960008381526020019081526020016000206004018190555082826040516109b1929190612ba9565b6040518091039020817f1ba515046243d362e4c416d7e80c5d5430205ddc340b8bb4fccddaeaeaf819ce426040516109e991906122f4565b60405180910390a3505050565b60008073ffffffffffffffffffffffffffffffffffffffff168273ffffffffffffffffffffffffffffffffffffffff1603610a66576040517f08c379a0000000000000000000000000000000000000000000000000000000008152600401610a5d90612ca0565b60405180910390fd5b600360008373ffffffffffffffffffffffffffffffffffffffff1673ffffffffffffffffffffffffffffffffffffffff168152602001908152602001600020549050919050565b610ab5611513565b610abf6000611591565b565b6000600660009054906101000a900473ffffffffffffffffffffffffffffffffffffffff16905090565b606060018054610afa9061294c565b80601f0160208091040260200160405190810160405280929190818152602001828054610b269061294c565b8015610b735780601f10610b4857610100808354040283529160200191610b73565b820191906000526020600020905b815481529060010190602001808311610b5657829003601f168201915b5050505050905090565b600a6020528060005260406000206000915090505481565b6008818051602081018201805184825260208301602085012081835280955050505050506000915090505481565b6000610bcd611513565b6000600a60008973ffffffffffffffffffffffffffffffffffffffff1673ffffffffffffffffffffffffffffffffffffffff1681526020019081526020016000205414610c4f576040517f08c379a0000000000000000000000000000000000000000000000000000000008152600401610c4690612d0c565b60405180910390fd5b600060088484604051610c63929190612ba9565b90815260200160405180910390205414610cb2576040517f08c379a0000000000000000000000000000000000000000000000000000000008152600401610ca990612d78565b60405180910390fd5b60018460ff1610158015610cca575060038460ff1611155b610d09576040517f08c379a0000000000000000000000000000000000000000000000000000000008152600401610d0090612de4565b60405180910390fd5b6000600760008154610d1a90612e33565b9190508190559050610d2c8882611657565b6040518060e001604052808881526020018781526020018660ff16815260200160011515815260200142815260200142815260200185858080601f016020809104026020016040519081016040528093929190818152602001838380828437600081840152601f19601f8201169050808301925050505050505081525060096000838152602001908152602001600020600082015181600001556020820151816001015560408201518160020160006101000a81548160ff021916908360ff16021790555060608201518160020160016101000a81548160ff0219169083151502179055506080820151816003015560a0820151816004015560c0820151816005019081610e3a9190613027565b509050508060088585604051610e51929190612ba9565b90815260200160405180910390208190555080600a60008a73ffffffffffffffffffffffffffffffffffffffff1673ffffffffffffffffffffffffffffffffffffffff168152602001908152602001600020819055508773ffffffffffffffffffffffffffffffffffffffff168484604051610ece929190612ba9565b6040518091039020827f3ada1229f16c9c488efdafd5637ac6f39762503e4f5c659dd3c773ced041d22d8842604051610f089291906130f9565b60405180910390a4809150509695505050505050565b610f30610f29611415565b8383611675565b5050565b6040517f08c379a0000000000000000000000000000000000000000000000000000000008152600401610f6690612aed565b60405180910390fd5b6060610f7a826113ca565b6000610f846117e1565b90506000815111610fa45760405180602001604052806000815250610fcf565b80610fae846117f8565b604051602001610fbf929190613153565b6040516020818303038152906040525b915050919050565b610fdf611e88565b600060088484604051610ff3929190612ba9565b908152602001604051809103902054905060008103611047576040517f08c379a000000000000000000000000000000000000000000000000000000000815260040161103e90612c0e565b60405180910390fd5b600960008281526020019081526020016000206040518060e001604052908160008201548152602001600182015481526020016002820160009054906101000a900460ff1660ff1660ff1681526020016002820160019054906101000a900460ff1615151515815260200160038201548152602001600482015481526020016005820180546110d59061294c565b80601f01602080910402602001604051908101604052809291908181526020018280546111019061294c565b801561114e5780601f106111235761010080835404028352916020019161114e565b820191906000526020600020905b81548152906001019060200180831161113157829003601f168201915b50505050508152505091505092915050565b600181565b6000600560008473ffffffffffffffffffffffffffffffffffffffff1673ffffffffffffffffffffffffffffffffffffffff16815260200190815260200160002060008373ffffffffffffffffffffffffffffffffffffffff1673ffffffffffffffffffffffffffffffffffffffff16815260200190815260200160002060009054906101000a900460ff16905092915050565b60096020528060005260406000206000915090508060000154908060010154908060020160009054906101000a900460ff16908060020160019054906101000a900460ff169080600301549080600401549080600501805461125a9061294c565b80601f01602080910402602001604051908101604052809291908181526020018280546112869061294c565b80156112d35780601f106112a8576101008083540402835291602001916112d3565b820191906000526020600020905b8154815290600101906020018083116112b657829003601f168201915b5050505050905087565b6112e5611513565b600073ffffffffffffffffffffffffffffffffffffffff168173ffffffffffffffffffffffffffffffffffffffff1603611354576040517f08c379a000000000000000000000000000000000000000000000000000000000815260040161134b906131e9565b60405180910390fd5b61135d81611591565b50565b60007f01ffc9a7000000000000000000000000000000000000000000000000000000007bffffffffffffffffffffffffffffffffffffffffffffffffffffffff1916827bffffffffffffffffffffffffffffffffffffffffffffffffffffffff1916149050919050565b6113d3816118c6565b611412576040517f08c379a000000000000000000000000000000000000000000000000000000000815260040161140990612b59565b60405180910390fd5b50565b600033905090565b816004600083815260200190815260200160002060006101000a81548173ffffffffffffffffffffffffffffffffffffffff021916908373ffffffffffffffffffffffffffffffffffffffff160217905550808273ffffffffffffffffffffffffffffffffffffffff1661149083610861565b73ffffffffffffffffffffffffffffffffffffffff167f8c5be1e5ebec7d5bd14f71427d1e84f3dd0314c0f7b2291e5b200ac8c7c3b92560405160405180910390a45050565b60006002600083815260200190815260200160002060009054906101000a900473ffffffffffffffffffffffffffffffffffffffff169050919050565b61151b611415565b73ffffffffffffffffffffffffffffffffffffffff16611539610ac1565b73ffffffffffffffffffffffffffffffffffffffff161461158f576040517f08c379a000000000000000000000000000000000000000000000000000000000815260040161158690613255565b60405180910390fd5b565b6000600660009054906101000a900473ffffffffffffffffffffffffffffffffffffffff16905081600660006101000a81548173ffffffffffffffffffffffffffffffffffffffff021916908373ffffffffffffffffffffffffffffffffffffffff1602179055508173ffffffffffffffffffffffffffffffffffffffff168173ffffffffffffffffffffffffffffffffffffffff167f8be0079c531659141344cd1fd0a4f28419497f9722a3daafe3b4186f6b6457e060405160405180910390a35050565b611671828260405180602001604052806000815250611907565b5050565b8173ffffffffffffffffffffffffffffffffffffffff168373ffffffffffffffffffffffffffffffffffffffff16036116e3576040517f08c379a00000000000000000000000000000000000000000000000000000000081526004016116da906132c1565b60405180910390fd5b80600560008573ffffffffffffffffffffffffffffffffffffffff1673ffffffffffffffffffffffffffffffffffffffff16815260200190815260200160002060008473ffffffffffffffffffffffffffffffffffffffff1673ffffffffffffffffffffffffffffffffffffffff16815260200190815260200160002060006101000a81548160ff0219169083151502179055508173ffffffffffffffffffffffffffffffffffffffff168373ffffffffffffffffffffffffffffffffffffffff167f17307eab39ab6107e8899845ad3d59bd9653f200f220920489ca2b5937696c31836040516117d49190611f84565b60405180910390a3505050565b606060405180602001604052806000815250905090565b60606000600161180784611962565b01905060008167ffffffffffffffff81111561182657611825612314565b5b6040519080825280601f01601f1916602001820160405280156118585781602001600182028036833780820191505090505b509050600082602001820190505b6001156118bb578080600190039150507f3031323334353637383961626364656600000000000000000000000000000000600a86061a8153600a85816118af576118ae6132e1565b5b04945060008503611866575b819350505050919050565b60008073ffffffffffffffffffffffffffffffffffffffff166118e8836114d6565b73ffffffffffffffffffffffffffffffffffffffff1614159050919050565b6119118383611ab5565b61191e6000848484611cd2565b61195d576040517f08c379a000000000000000000000000000000000000000000000000000000000815260040161195490613382565b60405180910390fd5b505050565b600080600090507a184f03e93ff9f4daa797ed6e38ed64bf6a1f01000000000000000083106119c0577a184f03e93ff9f4daa797ed6e38ed64bf6a1f01000000000000000083816119b6576119b56132e1565b5b0492506040810190505b6d04ee2d6d415b85acef810000000083106119fd576d04ee2d6d415b85acef810000000083816119f3576119f26132e1565b5b0492506020810190505b662386f26fc100008310611a2c57662386f26fc100008381611a2257611a216132e1565b5b0492506010810190505b6305f5e1008310611a55576305f5e1008381611a4b57611a4a6132e1565b5b0492506008810190505b6127108310611a7a576127108381611a7057611a6f6132e1565b5b0492506004810190505b60648310611a9d5760648381611a9357611a926132e1565b5b0492506002810190505b600a8310611aac576001810190505b80915050919050565b600073ffffffffffffffffffffffffffffffffffffffff168273ffffffffffffffffffffffffffffffffffffffff1603611b24576040517f08c379a0000000000000000000000000000000000000000000000000000000008152600401611b1b906133ee565b60405180910390fd5b611b2d816118c6565b15611b6d576040517f08c379a0000000000000000000000000000000000000000000000000000000008152600401611b649061345a565b60405180910390fd5b611b7b600083836001611e59565b611b84816118c6565b15611bc4576040517f08c379a0000000000000000000000000000000000000000000000000000000008152600401611bbb9061345a565b60405180910390fd5b6001600360008473ffffffffffffffffffffffffffffffffffffffff1673ffffffffffffffffffffffffffffffffffffffff16815260200190815260200160002060008282540192505081905550816002600083815260200190815260200160002060006101000a81548173ffffffffffffffffffffffffffffffffffffffff021916908373ffffffffffffffffffffffffffffffffffffffff160217905550808273ffffffffffffffffffffffffffffffffffffffff16600073ffffffffffffffffffffffffffffffffffffffff167fddf252ad1be2c89b69c2b068fc378daa952ba7f163c4a11628f55a4df523b3ef60405160405180910390a4611cce600083836001611e5f565b5050565b6000611cf38473ffffffffffffffffffffffffffffffffffffffff16611e65565b15611e4c578373ffffffffffffffffffffffffffffffffffffffff1663150b7a02611d1c611415565b8786866040518563ffffffff1660e01b8152600401611d3e94939291906134cf565b6020604051808303816000875af1925050508015611d7a57506040513d601f19601f82011682018060405250810190611d779190613530565b60015b611dfc573d8060008114611daa576040519150601f19603f3d011682016040523d82523d6000602084013e611daf565b606091505b506000815103611df4576040517f08c379a0000000000000000000000000000000000000000000000000000000008152600401611deb90613382565b60405180910390fd5b805181602001fd5b63150b7a0260e01b7bffffffffffffffffffffffffffffffffffffffffffffffffffffffff1916817bffffffffffffffffffffffffffffffffffffffffffffffffffffffff191614915050611e51565b600190505b949350505050565b50505050565b50505050565b6000808273ffffffffffffffffffffffffffffffffffffffff163b119050919050565b6040518060e001604052806000801916815260200160008019168152602001600060ff1681526020016000151581526020016000815260200160008152602001606081525090565b6000604051905090565b600080fd5b600080fd5b60007fffffffff0000000000000000000000000000000000000000000000000000000082169050919050565b611f1981611ee4565b8114611f2457600080fd5b50565b600081359050611f3681611f10565b92915050565b600060208284031215611f5257611f51611eda565b5b6000611f6084828501611f27565b91505092915050565b60008115159050919050565b611f7e81611f69565b82525050565b6000602082019050611f996000830184611f75565b92915050565b600081519050919050565b600082825260208201905092915050565b60005b83811015611fd9578082015181840152602081019050611fbe565b60008484015250505050565b6000601f19601f8301169050919050565b600061200182611f9f565b61200b8185611faa565b935061201b818560208601611fbb565b61202481611fe5565b840191505092915050565b600060208201905081810360008301526120498184611ff6565b905092915050565b6000819050919050565b61206481612051565b811461206f57600080fd5b50565b6000813590506120818161205b565b92915050565b60006020828403121561209d5761209c611eda565b5b60006120ab84828501612072565b91505092915050565b600073ffffffffffffffffffffffffffffffffffffffff82169050919050565b60006120df826120b4565b9050919050565b6120ef816120d4565b82525050565b600060208201905061210a60008301846120e6565b92915050565b612119816120d4565b811461212457600080fd5b50565b60008135905061213681612110565b92915050565b6000806040838503121561215357612152611eda565b5b600061216185828601612127565b925050602061217285828601612072565b9150509250929050565b600060ff82169050919050565b6121928161217c565b82525050565b60006020820190506121ad6000830184612189565b92915050565b6000806000606084860312156121cc576121cb611eda565b5b60006121da86828701612127565b93505060206121eb86828701612127565b92505060406121fc86828701612072565b9150509250925092565b600080fd5b600080fd5b600080fd5b60008083601f84011261222b5761222a612206565b5b8235905067ffffffffffffffff8111156122485761224761220b565b5b60208301915083600182028301111561226457612263612210565b5b9250929050565b6000806020838503121561228257612281611eda565b5b600083013567ffffffffffffffff8111156122a05761229f611edf565b5b6122ac85828601612215565b92509250509250929050565b6000602082840312156122ce576122cd611eda565b5b60006122dc84828501612127565b91505092915050565b6122ee81612051565b82525050565b600060208201905061230960008301846122e5565b92915050565b600080fd5b7f4e487b7100000000000000000000000000000000000000000000000000000000600052604160045260246000fd5b61234c82611fe5565b810181811067ffffffffffffffff8211171561236b5761236a612314565b5b80604052505050565b600061237e611ed0565b905061238a8282612343565b919050565b600067ffffffffffffffff8211156123aa576123a9612314565b5b6123b382611fe5565b9050602081019050919050565b82818337600083830152505050565b60006123e26123dd8461238f565b612374565b9050828152602081018484840111156123fe576123fd61230f565b5b6124098482856123c0565b509392505050565b600082601f83011261242657612425612206565b5b81356124368482602086016123cf565b91505092915050565b60006020828403121561245557612454611eda565b5b600082013567ffffffffffffffff81111561247357612472611edf565b5b61247f84828501612411565b91505092915050565b6000819050919050565b61249b81612488565b81146124a657600080fd5b50565b6000813590506124b881612492565b92915050565b6124c78161217c565b81146124d257600080fd5b50565b6000813590506124e4816124be565b92915050565b60008060008060008060a0878903121561250757612506611eda565b5b600061251589828a01612127565b965050602061252689828a016124a9565b955050604061253789828a016124a9565b945050606061254889828a016124d5565b935050608087013567ffffffffffffffff81111561256957612568611edf565b5b61257589828a01612215565b92509250509295509295509295565b61258d81611f69565b811461259857600080fd5b50565b6000813590506125aa81612584565b92915050565b600080604083850312156125c7576125c6611eda565b5b60006125d585828601612127565b92505060206125e68582860161259b565b9150509250929050565b600067ffffffffffffffff82111561260b5761260a612314565b5b61261482611fe5565b9050602081019050919050565b600061263461262f846125f0565b612374565b9050828152602081018484840111156126505761264f61230f565b5b61265b8482856123c0565b509392505050565b600082601f83011261267857612677612206565b5b8135612688848260208601612621565b91505092915050565b600080600080608085870312156126ab576126aa611eda565b5b60006126b987828801612127565b94505060206126ca87828801612127565b93505060406126db87828801612072565b925050606085013567ffffffffffffffff8111156126fc576126fb611edf565b5b61270887828801612663565b91505092959194509250565b61271d81612488565b82525050565b61272c8161217c565b82525050565b61273b81611f69565b82525050565b61274a81612051565b82525050565b600082825260208201905092915050565b600061276c82611f9f565b6127768185612750565b9350612786818560208601611fbb565b61278f81611fe5565b840191505092915050565b600060e0830160008301516127b26000860182612714565b5060208301516127c56020860182612714565b5060408301516127d86040860182612723565b5060608301516127eb6060860182612732565b5060808301516127fe6080860182612741565b5060a083015161281160a0860182612741565b5060c083015184820360c08601526128298282612761565b9150508091505092915050565b60006020820190508181036000830152612850818461279a565b905092915050565b6000806040838503121561286f5761286e611eda565b5b600061287d85828601612127565b925050602061288e85828601612127565b9150509250929050565b6128a181612488565b82525050565b600060e0820190506128bc600083018a612898565b6128c96020830189612898565b6128d66040830188612189565b6128e36060830187611f75565b6128f060808301866122e5565b6128fd60a08301856122e5565b81810360c083015261290f8184611ff6565b905098975050505050505050565b7f4e487b7100000000000000000000000000000000000000000000000000000000600052602260045260246000fd5b6000600282049050600182168061296457607f821691505b6020821081036129775761297661291d565b5b50919050565b7f4552433732313a20617070726f76616c20746f2063757272656e74206f776e6560008201527f7200000000000000000000000000000000000000000000000000000000000000602082015250565b60006129d9602183611faa565b91506129e48261297d565b604082019050919050565b60006020820190508181036000830152612a08816129cc565b9050919050565b7f4552433732313a20617070726f76652063616c6c6572206973206e6f7420746f60008201527f6b656e206f776e6572206f7220617070726f76656420666f7220616c6c000000602082015250565b6000612a6b603d83611faa565b9150612a7682612a0f565b604082019050919050565b60006020820190508181036000830152612a9a81612a5e565b9050919050565b7f53696c6573696149443a20746f6b656e20697320736f756c626f756e64000000600082015250565b6000612ad7601d83611faa565b9150612ae282612aa1565b602082019050919050565b60006020820190508181036000830152612b0681612aca565b9050919050565b7f4552433732313a20696e76616c696420746f6b656e2049440000000000000000600082015250565b6000612b43601883611faa565b9150612b4e82612b0d565b602082019050919050565b60006020820190508181036000830152612b7281612b36565b9050919050565b600081905092915050565b6000612b908385612b79565b9350612b9d8385846123c0565b82840190509392505050565b6000612bb6828486612b84565b91508190509392505050565b7f4365727469666963617465206e6f7420666f756e640000000000000000000000600082015250565b6000612bf8601583611faa565b9150612c0382612bc2565b602082019050919050565b60006020820190508181036000830152612c2781612beb565b9050919050565b7f4552433732313a2061646472657373207a65726f206973206e6f74206120766160008201527f6c6964206f776e65720000000000000000000000000000000000000000000000602082015250565b6000612c8a602983611faa565b9150612c9582612c2e565b604082019050919050565b60006020820190508181036000830152612cb981612c7d565b9050919050565b7f57616c6c657420616c7265616479206861732061206365727469666963617465600082015250565b6000612cf6602083611faa565b9150612d0182612cc0565b602082019050919050565b60006020820190508181036000830152612d2581612ce9565b9050919050565b7f63657274496420616c7265616479207573656400000000000000000000000000600082015250565b6000612d62601383611faa565b9150612d6d82612d2c565b602082019050919050565b60006020820190508181036000830152612d9181612d55565b9050919050565b7f496e76616c6964207472757374206c6576656c00000000000000000000000000600082015250565b6000612dce601383611faa565b9150612dd982612d98565b602082019050919050565b60006020820190508181036000830152612dfd81612dc1565b9050919050565b7f4e487b7100000000000000000000000000000000000000000000000000000000600052601160045260246000fd5b6000612e3e82612051565b91507fffffffffffffffffffffffffffffffffffffffffffffffffffffffffffffffff8203612e7057612e6f612e04565b5b600182019050919050565b60008190508160005260206000209050919050565b60006020601f8301049050919050565b600082821b905092915050565b600060088302612edd7fffffffffffffffffffffffffffffffffffffffffffffffffffffffffffffffff82612ea0565b612ee78683612ea0565b95508019841693508086168417925050509392505050565b6000819050919050565b6000612f24612f1f612f1a84612051565b612eff565b612051565b9050919050565b6000819050919050565b612f3e83612f09565b612f52612f4a82612f2b565b848454612ead565b825550505050565b600090565b612f67612f5a565b612f72818484612f35565b505050565b5b81811015612f9657612f8b600082612f5f565b600181019050612f78565b5050565b601f821115612fdb57612fac81612e7b565b612fb584612e90565b81016020851015612fc4578190505b612fd8612fd085612e90565b830182612f77565b50505b505050565b600082821c905092915050565b6000612ffe60001984600802612fe0565b1980831691505092915050565b60006130178383612fed565b9150826002028217905092915050565b61303082611f9f565b67ffffffffffffffff81111561304957613048612314565b5b613053825461294c565b61305e828285612f9a565b600060209050601f831160018114613091576000841561307f578287015190505b613089858261300b565b8655506130f1565b601f19841661309f86612e7b565b60005b828110156130c7578489015182556001820191506020850194506020810190506130a2565b868310156130e457848901516130e0601f891682612fed565b8355505b6001600288020188555050505b505050505050565b600060408201905061310e6000830185612189565b61311b60208301846122e5565b9392505050565b600061312d82611f9f565b6131378185612b79565b9350613147818560208601611fbb565b80840191505092915050565b600061315f8285613122565b915061316b8284613122565b91508190509392505050565b7f4f776e61626c653a206e6577206f776e657220697320746865207a65726f206160008201527f6464726573730000000000000000000000000000000000000000000000000000602082015250565b60006131d3602683611faa565b91506131de82613177565b604082019050919050565b60006020820190508181036000830152613202816131c6565b9050919050565b7f4f776e61626c653a2063616c6c6572206973206e6f7420746865206f776e6572600082015250565b600061323f602083611faa565b915061324a82613209565b602082019050919050565b6000602082019050818103600083015261326e81613232565b9050919050565b7f4552433732313a20617070726f766520746f2063616c6c657200000000000000600082015250565b60006132ab601983611faa565b91506132b682613275565b602082019050919050565b600060208201905081810360008301526132da8161329e565b9050919050565b7f4e487b7100000000000000000000000000000000000000000000000000000000600052601260045260246000fd5b7f4552433732313a207472616e7366657220746f206e6f6e20455243373231526560008201527f63656976657220696d706c656d656e7465720000000000000000000000000000602082015250565b600061336c603283611faa565b915061337782613310565b604082019050919050565b6000602082019050818103600083015261339b8161335f565b9050919050565b7f4552433732313a206d696e7420746f20746865207a65726f2061646472657373600082015250565b60006133d8602083611faa565b91506133e3826133a2565b602082019050919050565b60006020820190508181036000830152613407816133cb565b9050919050565b7f4552433732313a20746f6b656e20616c7265616479206d696e74656400000000600082015250565b6000613444601c83611faa565b915061344f8261340e565b602082019050919050565b6000602082019050818103600083015261347381613437565b9050919050565b600081519050919050565b600082825260208201905092915050565b60006134a18261347a565b6134ab8185613485565b93506134bb818560208601611fbb565b6134c481611fe5565b840191505092915050565b60006080820190506134e460008301876120e6565b6134f160208301866120e6565b6134fe60408301856122e5565b81810360608301526135108184613496565b905095945050505050565b60008151905061352a81611f10565b92915050565b60006020828403121561354657613545611eda565b5b60006135548482850161351b565b9150509291505056fea2646970667358221220cb272892b634ae34ccebf02c21a26b05284255db0bc0c79d544613defb6e675b64736f6c63430008180033",
  "linkReferences": {},
  "deployedLinkReferences": {}
}